:020000040000FA
:020000000528D1
:0800080047286330AD0073309E
:10001000AE003030AF003130B0005230B10053305C
:10002000B200A401A0010430A300031483161F141E
:100030009F141F1505108510051106148610061152
:1000400086110616861606178617870187178B17DF
:100050000B170B168B158B12811281110115811450
:100060000114011781138C161812181318159816FD
:100070001930990083121813981718162514261092
:1000800028102710051085140511870146288C1AA1
:10009000972A8B18D22A0B197428061E5628861EFA
:1000A0005628061F5628861F56285B288A200B11C3
:1000B0000B185D285B280B100900061E0030861EF9
:1000C0000130061F0230861F0330A0000301200705
:1000D000A100942000303302031D36295B288B16C3
:1000E000E730AA00023081000B1D09000B11AA0B9A
:1000F00072288B1227185A2A08008B16B8019A30DA
:10010000A900023081000B1D83280B11A90B812847
:100110008B12242A8B168B3081000B1D8D28271CF7
:100120008B120800A30A96280E30870003012102D3
:100130000319A328013021020319A8280230210243
:100140000319AD28B2280030A100061AB728BC2830
:100150000130A100861AB728BC280230A100061B76
:10016000B728BC280330A100861BB728BC28A40AE6
:10017000871D2E29870D9628B30A03012002031933
:10018000CA28013020020319D7280230200203199F
:10019000E428F12803012402031901290130240273
:1001A00003190A29023024020319132928290301FB
:1001B0002402031904290130240203190D290230F5
:1001C000240203191629FE28030124020319072912
:1001D00001302402031910290230240203191929BD
:1001E0002B290301240203191C29013024020319BD
:1001F0001F29023024020319222925293030A200A8
:1002000030293130A20030293230A2003029333079
:10021000A20030293430A20030293530A200302924
:100220003630A20030293730A20030293830A20001
:1002300030293930A20030294130A2003029423023
:10024000A20030294330A20030294430A2003029D6
:100250002A30A20030292330A2003029FF30302973
:10026000003087000430A300A401080001303302ED
:100270000319462902303302031949290330330296
:1002800003194C290430330203194F292208B40002
:100290005B282208B5005B282208B6005B282208EC
:1002A000B7000030B30054293130340203196029FB
:1002B0004130340203196D293630340203197A298A
:1002C00032303502031D872933303602031D87295A
:1002D00034303702031D8729A92942303502031D16
:1002E000872943303602031D872944303702031D16
:1002F0008729DB2937303502031D8729383036023C
:10030000031D872939303702031D8729FE294E3006
:10031000990094224F309900942220309900942221
:10032000563099009422C130990094224C309900A3
:1003300094224930990094224430990094224F30FD
:10034000990094220A30990094220D309900942249
:100350005B280130B8004630990094224C30990057
:1003600094224F30990094225230990094224530C3
:10037000990094224E30990094225430990094228E
:100380004930990094224E30990094224F309900C0
:1003900094220A30990094220D3099009422271853
:1003A000B8012718772A2518B8012518772A2618A2
:1003B000772AB8015B280130B800503099009422A8
:1003C000453099009422523099009422453099008A
:1003D00094225A30990094220A30990094220D30C8
:1003E000990094222718B8012718772A2518B801F0
:1003F0002518772A2618772AB8015B280130B8001B
:100400005A3099009422493099009422443099003E
:1004100094224130990094224E3099009422453024
:10042000990094220A30990094220D309900942268
:100430002718B8012718772A2518B8012518772A10
:100440002618772AB8015B282514261028102710B3
:1004500005108514051173309900942230309900ED
:1004600094223130990094225230990094220A301B
:10047000990094220D3099009422AB0109002510B7
:1004800026102810271405108510051573309900C3
:1004900094223030990094223130990094224430D3
:1004A000990094220A30990094220D3099009422E8
:1004B000AB010800251026102814271005148510FC
:1004C0000511733099009422303099009422313014
:1004D000990094224630990094220A30990094227F
:1004E0000D3099009422AB010B180B100900251058
:1004F000261428102710051485140515733099004B
:100500009422303099009422313099009422533053
:10051000990094220A30990094220D309900942277
:10052000AB0138187D2809000C1E942A08001A080F
:10053000AC01AC0700302B020319AB2A01302B02AF
:100540000319B22A02302B020319B92A03302B02F5
:100550000319C02AC72A2C082D02031DD02A0130F6
:10056000AB0009002C082E02031DD02A0230AB007C
:1005700009002C082F02031DD02A0330AB0009000C
:100580002C083002031DD02A0430AB0009002C08CF
:1005900031020319242A2C0832020319772AD02A9F
:1005A000AB0109002518D62A8B1009003F228B10B9
:0405B0006F200900AF
:02400E00793FF8
:00000001FF
